:030000000217AD37
:0C17AD00787FE4F6D8FD7581480217F43F
:0A202500426F6F74207570210A00ED
:051C3B0003150000008C
:101A8D00121EDC7E007F007D007C08121D8E7D0401
:101A9D007C007F017E00120026AA06A9077515019C
:101AAD008A168917121F7F121FBC12208212204125
:101ABD0012204A121F27121F0F7F647E00121EF67E
:101ACD001214887F2C7E01121EF6C2051220387B5F
:0F1ADD00FF7A2079251220887F0A7E00021EF6EC
:101FCF00121A8D12153212171912081312207C8053
:011FDF00F50C
:101C400001110001120001130042080200004208C5
:101C500004000042080600004208000000011000D5
:0D1C6000011400C101C100C102C103C10493
:03002300021F6A4F
:101F6A0030980AC298859911D20385991330990439
:051F7A00C299D2003203
:03008B00021EC290
:101EC200C0E0E5AC30E00653ACFE85AD12E5AC30C7
:0A1ED200E10553ACFDD202D0E0326E
:03000B000218C018
:1018C000C0E0C083C082C0D075D000C006C0079001
:1018D0000803E004F07006900802E004F0900805A8
:1018E000E004F07006900804E004F0900807E004BB
:1018F000F07006900806E004F0900801E004F07033
:1019000006900800E004F075C117900804E0FEA3FB
:10191000E0FFD39488EE94134004C2C18002D2C188
:10192000D3EF9450EE94144007900804E4F0A3F031
:0D193000D007D006D0D0D082D083D0E032D6
:0300530002193D52
:10193D00C0E0C0F0C083C082C0D075D000C000C070
:0D194D0001C002C003C004C005C006C007F1
:10195A00538FEF121BEC783B7C007D007E007F04E6
:10196A0012015EE53B6026AB15AA16A91790000383
:10197A0012019DFF64026015EFB40302800FE53D7A
:10198A00B4010A900003740112020FD204438F10AB
:10199A00D007D006D005D004D003D002D001D000A1
:0B19AA00D0D0D082D083D0F0D0E0324B
:03000300021D14C7
:101D1400C0E0C0F0C083C082C0D075D000C000C095
:101D240001C002C003C004C005C006C007D2071228
:101D3400202FD007D006D005D004D003D002D00184
:0D1D4400D000D0D0D082D083D0F0D0E032DB
:101BEC0053D1EF75A0FFD2A2D2A1C286120006C2B9
:101BFC00A0D28612000685A03FC286120006D2A093
:101C0C00E53FC4540FF53F30E003754001E53F302C
:101C1C00E103754101E53F30E203754201E53F30D8
:0E1C2C00E30375430143D1107B007A00794039
:011C3A002287
:0300130002008A5E
:01008A003243
:040006007F05DFFE95
:01000A0022D3
:101DCA00C208121FF9C28675A0FFC2A2D2A1C2A080
:101DDA00D28612000685A047C286120006D2A0E566
:0D1DEA0047C4540FF547D208121FF9AF4748
:011DF70022C9
:09202F00300703D28422C284228E
:0B1FF90030080443D1102253D1EF2226
:101F2700759850438E01438E0475D7BF75D6FF430E
:071F37008E10D2AFD2AC22E4
:101F0F0075AC1043AC4053D1FD75D5BF75D4FF43AD
:081F1F00D108D2AF43AF082244
:082065008F993000FDC200223A
:08206D008FAD3002FDC202221A
:101F3E00120184FFD39400400C122065740129F91C
:061F4E00E43AFA80EB22E8
:101F5400120184FFD39400400C12206D740129F9FE
:061F6400E43AFA80EB22D2
:101E7B00E4F5C7F5C28FC48EC375C50143C7807522
:101E8B00C65A75C6A5AFC253C710F5C6F5C5F5C47E
:041E9B00F5C3F5C2D4
:011E9F002220
:041C8900AB07AA06F5
:101C8D00E4F5C7F5C2AF03AE028FC48EC38DC27526
:101C9D00C50243C78075C65A75C6A5E5C754906081
:101CAD000AE4F5C7F5C6F5C57F0222AF03AE0212F1
:101CBD001E7BEF6D600AE4F5C7F5C6F5C57F012201
:081CCD00E4F5C7F5C6F5C5FFFB
:011CD50022EC
:101EF600D3EF9400EE9400400F7D1E7C2BDCFEDDBC
:081F0600FCEF1F70EB1E80E8E8
:011F0E0022B0
:04000E007F05DFFE8D
:0100120022CB
:0620750000007F0CDFFEFD
:01207B002242
:101EDC00E4F596F595759414759310F5B2F5B1F586
:0A1EEC00B4F5B37592407591A02281
:0D001600300505C283C2C222D283D2C222AD
:09203800300503D28422C2842287
:060B61008B228A23892487
:100B6700E4F528F527F526F52575BC80AB22AA23E1
:100B7700A92490000312019D14600A14600C1460EC
:100B87000E2403800D43BC20800843BC40800343F0
:100B9700BC6090000112019DB40800505A900BAB45
:100BA700F8282873020BC3020BC8020BD0020BD81C
:100BB700020BE0020BE8020BF0020BF8759D0180B7
:100BC70036759D0243BC01802E759D0443BC02808F
:100BD70026759D0843BC03801E759D1043BC048089
:100BE70016759D2043BC05800E759D4043BC06804D
:100BF70006759D8043BC0743972043BC08E5BC307E
:100C0700E4FBE4F5BCF59DAB22AA23A924120184D9
:100C1700D39400405DAFBDE48F28F527F526F52571
:100C2700AE27AD26AC2578081204528F288E278D63
:100C3700268C25AFBEE4FCFDFEE5282FF528EE3512
:100C470027F527ED3526F526EC3525F52590000403
:100C5700120465E4FB7A04F9F8120335AB28AA27D6
:100C6700A926A8251203C08F288E278D268C25023A
:100C77000D11AB22AA23A92490000212019DB408EA
:100C8700209000041204B9AFBEE4FCFDFE12033548
:100C9700E4FB7A01F9F81203C08F288E278D268C82
:100CA70025AB22AA23A92490000212019D640A7091
:100CB70059AFBD8F28F527F526F525AE27AD26AC0C
:100CC7002578081204528F288E278D268C25AFBED3
:100CD700E4FCFDFEE5282FF528EE3527F527ED3551
:100CE70026F526EC3525F525900004120465AB287A
:100CF700AA27A926A825120335E4FB7A04F9F812D6
:100D070003C08F288E278D268C25E4F5BCF5BDF50D
:050D1700BEAE27AF286D
:010D1C0022B4
:101CD6004552524F5220434F444520323031312134
:101CE6000A53797374656D2068616C742E0A004519
:101CF60052524F5220434F44452032303132210A4E
:0E1D060053797374656D2068616C742E0A0049
:101EA000C286EFC454F0FF75A00FC2A2C2A142A027
:101EB00012000EC2A0D28612000EC28612000ED2EE
:021EC000A0225E
:101B4600C20612200FC28675A0FFD2A2D2A1C2A0E1
:101B5600D28612000E85A036C28612000ED2A0E5ED
:101B660036C4540FF53630E003753701E53630E1FB
:101B760003753801E53630E203753901E53630E3A1
:101B860003753A01300505D20612200F7B007A0054
:021B960079379D
:011B9800222A
:101DF800D20612200FC28675A0FFC2A2D2A1C2A02D
:101E0800D28612000E85A025C28612000ED2A0E549
:0D1E180025C4540FF525D20612200FAF256A
:011E2500229A
:10130A007401AB30AA31A9321201FDAB30AA31A95E
:01131A0032A0
:06131B008B368A37893889
:10132100E4FFF53912018460010FAB36AA37A93801
:1013310090000112019D6003430702900002120117
:101341009D600343070490000312019D600343075E
:101351000890000412019D600343390190000512B9
:10136100019D600343390290000612019D60034311
:10137100390490000712019D6003433908EFC454FA
:10138100F0FFE539C454F0F539C28675A00FD2A239
:10139100C2A1EF42A0C2A0D28612000EC2861200E4
:1013A1000ED2A0AB36AA37A93890000312019D6076
:1013B1001975A00FD2A2C2A1E53942A0C2A0D2865E
:0A13C10012000EC28612000ED2A028
:0113CB0022FF
:101488007533007534007535007F087E0012167DAF
:10149800AA06A9077533018A3489357E007F087D3D
:1014A80000AB331206CEAB33AA34A935E41201FDE2
:1014B800AB33AA34A93590000112020F900002E460
:1014C80012020F900003E412020F900004E41202CB
:1014D8000F900005E412020F900006E412020F902C
:1014E8000007E412020FC205121B46AB33AA34A947
:1014F8003512131BAB33AA34A93512131BAB33AA0D
:1015080034A935900003740112020F12131BAB3378
:10151800AA34A935900003E412020F12131BC20566
:0A152800121B46AE34AF3502120666
:0210FF008F2F31
:101101007F087E0012167DAA06A9077530018A3173
:101111008932E94A4530700B7BFF7A1C79D612205F
:101121008880FEAB30AA31A932E41201FDAB30AAAE
:1011310031A93290000112020F900002E412020F55
:10114100900003740112020F900004740112020F47
:10115100900006E412020F900005E412020F9000C5
:1011610007E412020FC20512201AC20612200FC292
:1011710086121488121315AF2F121EA012130AE43F
:10118100900802F0A3F0C3900803E09432900802A3
:10119100E0940040F1E412130CE4900802F0A3F093
:1011A100C3900803E09432900802E0940040F1C239
:1011B10005121B46E52FC4540FF52F12130AAF2F4A
:1011C100121EA0E4900802F0A3F0C3900803E0947B
:1011D10032900802E0940040F1AB30AA31A932E428
:1011E100121312E4900802F0A3F0C3900803E094F4
:1011F10032900802E0940040F1C205121B46AE3164
:05120100AF32021206ED
:101532007F087E0012167DAA06A90790081874017A
:10154200F0A3EAF0A3E9F0900818E0FBA3E0FAA305
:10155200E04A4B700B7BFF7A1C79F512208880FEE3
:10156200900818E0FBA3E0FAA3E0F9E41201FD9071
:101572000818E0FBA3E0FAA3E0F9900001E41202EC
:101582000F900002740112020F9000037401120204
:101592000F900004740112020F900006E412020F71
:1015A200900005E412020F900007E412020F1214D9
:1015B20088900818E0FBA3E0FAA3E0F912131B904D
:1015C2000818A3E0FAA3E0AE02FF121206D2061236
:0715D200200FD20502201AD0
:101A2300E4F52275230AF52430045E900802F0A33E
:101A3300F0C2C4C3900803E09419900802E0940034
:101A430040F1121DF88F22C3900803E0947D9008A3
:101A530002E0940040F1121DF88F23C3900803E0C5
:101A630094DC900802E0940040F1E523C454F0F5BF
:101A7300234222AF2212208BC204D2C4AB15AA1672
:091A8300A917900003E412020F00
:011A8C002237
:101E5100AB15AA16A917900003740212020FE490A1
:101E61000802F0A3F0D205120016C3900803E09413
:0A1E7100B8900802E0940B40F12243
:101E2600E4900802F0A3F0C3900803E094E8900859
:101E360002E0940340F1C205120016121532AB15EA
:0B1E4600AA16A917900003E402020F87
:100056008B288A29892A121E51AB28AA29A92A1275
:100066000184FF60171210FF7401252AF52AE43572
:1000760029F5297F647E00121EF680DD121E26D227
:040086000502203817
:0A1D51008B288A29892A8C2B8D2CFF
:101D5B00121E51E4F52DF52EC3E52E952CE52D9590
:101D6B002B501DAB28AA29A92A852E82852D8312DB
:101D7B00019DFF1210FF052EE52E70DC052D80D87E
:031D8B00021E260F
:060EAE008B188A19891A55
:100EB400900813E4F0A3F0A3F07D01FC7F05FE127B
:100EC4000026AA06A9079008137401F0A3EAF0A368
:100ED400E9F0E4900811F0E4900810F0900810E0B4
:100EE400FFC39405503CAB18AA19A91A8F827583C5
:100EF4000012019DFF900811E0FEF5827583001237
:100F0400019DB50715900813E0FBA3E0FAA3E0F9EF
:100F14008E8275830074011201CA900810E004F0F7
:100F240080BA900811E004F0E0B405AB900813E037
:100F3400FBA3E0FAA3E0F990000112019DFF120166
:100F440084D39F4007E4900812F08006900812743E
:100F540001F0900813E0FBA3E0FAA3E0F990081273
:100F6400E0F58275830012019DFF90000212019D3D
:100F7400FEEFD39E50069008127402F0900813E01E
:100F8400FBA3E0FAA3E0F9900812E0F58275830070
:100F940012019DFF90000312019DFEEFD39E5006A7
:100FA4009008127403F0900813E0FBA3E0FAA3E0A6
:100FB400F9900812E0F58275830012019DFF9000FC
:100FC4000412019DFEEFD39E50069008127404F0A3
:100FD400AB18AA19A91A900812E0F58275830012B9
:030FE400019DFF6D
:010FE70022E7
:1015D900EF247FB41900400302167C9015F275F0D0
:1015E90003A4C58325F0C5837302163D0216400284
:1015F900164302164602164902164C02164F0216E7
:101609005202165502165802165B02165E02167C25
:1016190002167C02167C02167C021661021664020E
:10162900166702166A02166D021670021673021602
:10163900760216797F20227F2D227F2F227F3D225D
:101649007F3E227F3F227F40227F4D227F4E227F95
:101659004F227F5D227F5E227F5F227F60227F6D26
:10166900227F6E227F6F227F70227F7D227F7E22E2
:041679007F7F22222B
:10183900EF12050D18802018832D18862F18893D61
:10184900188C3E188F3F18924018954D18984E18CD
:101859009B4F189E5D18A15E18A45F18A76018AA6F
:101869006D18AD6E18B06F18B37018B67D18B97EC3
:1018790018BC7F000018BF7F81227F82227F8322CC
:101889007F84227F85227F86227F87227F88227F0D
:1018990089227F8A227F8B227F8C227F91227F92CD
:1018A900227F93227F94227F95227F96227F9722FF
:0718B9007F98227F99222293
:101F7F00538E7F5389F0758A3C758CF6C28DD2AF24
:051F8F00D2A9D28C2252
:0D1FE000300505D2A9D28C22C2A9C28C22E4
:101FA90043D10275D5FC75D4FF43D10853D1FE53F3
:031FB900AFDF2275
:0B20040030090443D1012253D1FE2219
:101FBC0043D12075D3FC75D2FF43D18053D1EF535D
:031FCC00AFBF2282
:0B200F0030060443D1102253D1EF2211
:101F9400438E4053890F758B48758DF4C28FC28E62
:051FA400D2AFC2AB2228
:0C1FED00300A05D28ED2AB22121F9422C3
:100D1D007265626F6F74005265626F6F74210A00A5
:100D2D006D74383838302073656E6420627974655F
:100D3D0000696E7075740A006D7438383830207320
:100D4D00656E64696E67206279746573210A006D42
:100D5D00743838383020746F6E652073656E742169
:100D6D000A0068633035206F6E0048433530204FE0
:100D7D004E0A0068633035206F6666004843353093
:100D8D00204F46460A007064206D6F646500706FD9
:100D9D00776572646F776E210A0069646C65206DEA
:100DAD006F64650049646C65206D6F6465210A0090
:100DBD0049646C65206D6F6465206F7574210A0040
:100DCD0073656E64006D74383838302073656E64E9
:100DDD0020737472696E67210A00686868686868B4
:100DED00686868680073656E645F73686F72745FBE
:100DFD00737472696E67006675636B20796F752009
:100E0D003233330A006D743838383020696E70759E
:100E1D00743A0A004F766572206C656E67746820AF
:100E2D00210A0073656E64696E672E2E2E0A0062AC
:100E3D0061740042415420766F6C7461676520695E
:100E4D00733A006D760A00436F6D6D616E642069B3
:100E5D006E636F727265637420210A004E6F206D90
:100E6D00656D7320666F7220696E70757420636F87
:100E7D006D6D616E6420210A00436F6D6D616E644E
:100E8D00206F766572206C656E67746820210A008C
:100E9D004572726F7220636F646520323031330A90
:010EAD000044
:0A1C6D00031B00000042081B0000EA
:060813008B228A238924D8
:10081900752500752600752700E4900816F0A3F0E9
:10082900E94A4B7003020B60781D7C0D7DFF1206AF
:10083900B1EF701C7BFF7A0D79241220887FDC7E52
:1008490005121EF675C760AE23AF2412120680FE8C
:10085900782D7C0D7DFFAB22AA23A9241206B1EFC6
:1008690070367BFF7A0D793E122088E4F513300348
:10087900FDC2037BFF7A0D79451220887B007A003F
:1008890079137D017C00121D517BFF7A0D795C1271
:100899002088E4F513020B4C786F7C0D7DFFAB22A9
:1008A900AA23A9241206B1EF7011D2051220387BB0
:1008B900FF7A0D7977122088020B4C78807C0D7DA8
:1008C900FFAB22AA23A9241206B1EF700EC20512AA
:1008D90020387BFF7A0D798902099A78937C0D7DFE
:1008E900FFAB22AA23A9241206B1EF70247BFF7A59
:1008F9000D799B1220887FD07E07121EF6C2051241
:100909002038AE23AF241212067587020000020BAD
:100919005378A77C0D7DFFAB22AA23A9241206B127
:10092900EF70447BFF7A0D79B11220887FD07E0762
:10093900121EF6C205122038C205121FE0C296AE79
:1009490023AF241212067FE87E03121EF6000075FB
:1009590087010000D205121FE0D2967BFF7A0D793C
:10096900BD122088020B5378CD7C0D7DFFAB22AAE6
:1009790023A9241206B1EF70257BFF7A0D79D212D3
:1009890020887BFF7A0D79E71200567BFF7A0D7973
:100999005C122088AE23AF24121206020B5378F2A0
:1009A9007C0D7DFFAB22AA23A9241206B1EF6003B7
:1009B900020AABC2037D01FC7F037E02120026AA54
:1009C90006A9077525018A268927E94A4525700B55
:1009D9007BFF7A0E790412208880FE7BFF7A0E79DC
:1009E90012122088E4F513C2033003FDE4900800D5
:1009F900F0A3F0E5136071900800E0FEA3E0FFC3E7
:100A090094E8EE94035061AB25AA26A9279008160D
:100A1900E0FCA3E0F5828C83E51312020FC2039078
:100A29000817E004F07006900816E004F0C3EF948C
:100A3900E8EE94035007E4900800F0A3F0D390087F
:100A490017E09400900816E0940240087BFF7A0EA4
:100A59007921802C20039CC3900801E094E8900838
:100A690000E09403508D80EC7BFF7A0E79301220E0
:100A790088AB25AA26A9271200567BFF7A0D795C37
:100A8900122088AE23AF24121206AE26AF27121207
:100A990006E4F513C203AB15AA16A91790000302C1
:100AA9000B5D783C7C0E7DFFAB22AA23A92412069C
:100AB900B1EF7BFF707C7A0E7940122088AB15AAC2
:100AC90016A917120286FFAEF07C037DE8120231E7
:100AD900121AF712208BAB15AA16A917120286FF54
:100AE900AEF07C007D64120231121AEC12208BAB3D
:100AF90015AA16A917120286FFAEF07C007D6412B2
:100B090002317E007F0ACFCDCFCECCCE1202311278
:100B19001AF712208BAB15AA16A917120286FFAE77
:100B2900F0121AEC12208B7BFF7A0E795012208872
:100B390080117A0E79541220887F0A7E00121EF6DF
:100B4900E4F513AE23AF24121206AB15AA16A917A2
:070B5900900003E412020FFB
:010B60002272
:10171900E4F5222003030217A6AB15AA16A9179010
:101729000003740312020FC2037D017C007F347E23
:1017390000120026AA06A907751B018A1C891DE942
:101749004A451B70087BFF7A0E79698024E5116090
:101759003EAB1BAA1CA91D85228275830012020FAC
:10176900C2030522E522D39432401F7BFF7A0E790A
:1017790086121F3EAE1CAF1D121206AB15AA16A982
:1017890017900003E412020F80132003C080FBE4CA
:10179900F511F513C203AB1BAA1CA91D227B007A04
:0317A900007900C4
:0117AC00221A
:03208800021F3EF6
:03208B00022065CB
:06207C00121A23020FE816
:0B1AEC007C007D0A120231AE04AF0541
:101AF700EE7049EFB40A005043901B07F82828738B
:101B0700021B25021B28021B2B021B2E021B310264
:101B17001B34021B37021B3A021B3D021B407F305E
:101B2700227F31227F32227F33227F34227F352268
:0F1B37007F36227F37227F38227F39227F452257
:100FE800900816E4F0A3F0A3F0AB15AA16A9179081
:100FF8000003740312020FC3900807E094E89008F6
:1010080006E0940350030210FEE4F0A3F07D08FC10
:101018007F01FE120026AA06A9079008167401F09F
:10102800A3EAF0A3E9F0900816E0FBA3E0FAA3E036
:101038004A4B700B7BFF7A0E799D12208880FE90B8
:101048000816E0FBA3E0FAA3E0F9900003E412021B
:101058000F74011201FD900816E0FBA3E0FAA3E06B
:10106800F99000041204E9000009C4900002740A0F
:1010780012020F900001740712020F120B61AB15D8
:10108800AA16A917EE8FF01202E9900816E0FBA342
:10109800E0FAA3E0F9E41201FD900816E0FBA3E0F2
:1010A800FAA3E0F9900001740512020FAB15AA1615
:1010B800A917120286FFAEF0E4FCFD900816E0FBCB
:1010C800A3E0FAA3E0F9900004120495120B61ABB7
:1010D80015AA16A917EE8FF01202E9900816A3E0D8
:1010E800FAA3E0AE02FF121206AB15AA16A91790D2
:0610F8000003E412020FE8
:0110FE0022CF
:06208200D2AF438F1022D3
:09204100D2B2D288D2A8D2AF229B
:09204A00D2B3D28AD2AAD2AF228D
:0B201A00300504438F1022538FEF228B
:09205300300B03D2A822C2A8221E
:09205C00300C03D2AA22C2AA2210
:0413CC008C088D09F3
:1013D000750A00750B01C3E50B9509E5086480F8F3
:1013E000E50A6480984003021487E50B25E0FFE5D9
:1013F0000A338F82F5831202B1F50D85F00CE50BEF
:1014000024FFF50FE50A34FFF50EC3E50E64809462
:1014100080404BE50F25E0FFE50E33FE8F82F5831C
:101420001202B1C3950DE50C6480F8E5F064809874
:10143000402C8F828E831202B1FDE50F2401FFE460
:10144000350EFEEF25E0FFEE338F82F583E5F08D5C
:10145000F0120308E50F150F70B0150E80ACE50F04
:101460002401FFE4350EFEEF25E0FFEE338F82F519
:1014700083E50C850DF0120308050BE50B600302F4
:0714800013D6050A0213D682
:011487002242
:061C7700011E14011F0311
:1019B5008B448A458946C2B2120184B40104D2B36C
:1019C5008002C2B312207512000EAB44AA45A94687
:1019D500120184FF651F600EE51F64036008900017
:1019E5000174021201CA8F1FAB44AA45A946900093
:1019F5000112019DD39400401AD2B4122075C2B4CD
:101A0500122075AB44AA45A94690000174FF120146
:0E1A1500CA80D5C2B412000E122075D2B222C1
:101B9900E4F548D2B27F14FE121EF6C2B2D2B312D5
:101BA900207512000EE548C39469500ED2B4122074
:101BB90075C2B4122075054880EBC2B312207512A4
:101BC900000EE4F548D2B4122075C2B4122075058E
:101BD90048E548C3945140EDD2B412207512000E65
:021BE900D2B276
:011BEB0022D7
:1017B900021FCFE493A3F8E493A34003F68001F258
:1017C90008DFF48029E493A3F85407240CC8C33331
:1017D900C4540F4420C8834004F456800146F6DF00
:1017E900E4800B0102040810204080901C3BE47E39
:1017F900019360BCA3FF543F30E509541FFEE493F5
:10180900A360010ECF54C025E060A840B8E493A3BB
:10181900FAE493A3F8E493A3C8C582C8CAC583CAE6
:10182900F0A3C8C582C8CAC583CADFE9DEE780BE9E
:011C7D000066
:10008E00E709F608DFFA8046E709F208DFFA803E54
:10009E0088828C83E709F0A3DFFA8032E309F60841
:1000AE00DFFA8078E309F208DFFA807088828C83A9
:1000BE00E309F0A3DFFA806489828A83E0A3F6085D
:1000CE00DFFA805889828A83E0A3F208DFFA804C37
:1000DE0080D280FA80C680D4806980F2803380100E
:1000EE0080A680EA809A80A880DA80E280CA803377
:1000FE0089828A83ECFAE493A3C8C582C8CCC583EF
:10010E00CCF0A3C8C582C8CCC583CCDFE9DEE780BE
:10011E000D89828A83E493A3F608DFF9ECFAA9F03D
:10012E00EDFB2289828A83ECFAE0A3C8C582C8CC93
:10013E00C583CCF0A3C8C582C8CCC583CCDFEADEAC
:10014E00E880DB89828A83E493A3F208DFF980CC0E
:10015E0088F0EF60010E4E60C388F0ED2402B40407
:10016E000050B9F582EB2402B4040050AF232345AE
:06017E0082239000DE73F5
:10018400BB010689828A83E0225002E722BBFE0279
:09019400E32289828A83E49322AC
:10019D00BB010CE58229F582E5833AF583E0225017
:1001AD0006E92582F8E622BBFE06E92582F8E22261
:0D01BD00E58229F582E5833AF583E493227B
:1001CA00BB010FF8E58229F582E5833AF583E02839
:1001DA00F0225009C58229F8E58226F622BBFE09DB
:1001EA00C58229F8E22582F222F8EA2583F583E915
:0301FA0093282225
:1001FD00BB010689828A83F0225002F722BBFE01E1
:02020D00F322DA
:10020F00F8BB010DE58229F582E5833AF583E8F025
:10021F00225006E92582C8F622BBFE05E92582C8D1
:02022F00F222B9
:10023100BC000BBE0029EF8DF084FFADF022E4CCB1
:10024100F875F008EF2FFFEE33FEEC33FCEE9DEC7A
:10025100984005FCEE9DFE0FD5F0E9E4CEFD22EDC0
:10026100F8F5F0EE8420D21CFEADF075F008EF2F0A
:10027100FFED33FD4007985006D5F0F222C398FDFB
:050281000FD5F0EA2298
:10028600BB010A89828A83E0F5F0A3E02250068743
:10029600F009E71922BBFE07E3F5F009E319228905
:0B02A600828A83E493F5F07401932238
:1002B100BB0110E58229F582E5833AF583E0F5F08B
:1002C100A3E0225009E92582F886F008E622BBFE68
:1002D1000AE92582F8E2F5F008E222E5832AF583AE
:0802E100E993F5F0A3E9932273
:1002E900BB010A89828A83F0E5F0A3F0225006F760
:0F02F90009A7F01922BBFE06F3E5F009F319225D
:10030800F8BB0111E58229F582E5833AF583E8F027
:10031800E5F0A3F0225009E92582C8F608A6F022E4
:0D032800BBFE09E92582C8F2E5F008F222CB
:10033500E88FF0A4CC8BF0A42CFCE98EF0A42CFC67
:100345008AF0EDA42CFCEA8EF0A4CDA8F08BF0A4E5
:100355002DCC3825F0FDE98FF0A42CCD35F0FCEB44
:100365008EF0A4FEA9F0EB8FF0A4CFC5F02ECD3909
:0F037500FEE43CFCEAA42DCE35F0FDE43CFC2276
:1003840075F008758200EF2FFFEE33FECD33CDCC30
:1003940033CCC58233C5829BED9AEC99E5829840B3
:1003A4000CF582EE9BFEED9AFDEC99FC0FD5F0D690
:1003B400E4CEFBE4CDFAE4CCF9A88222B800C1B9BA
:1003C4000059BA002DEC8BF084CFCECDFCE5F0CBF8
:1003D400F97818EF2FFFEE33FEED33FDEC33FCEB31
:1003E40033FB10D703994004EB99FB0FD8E5E4F9EC
:1003F400FA227818EF2FFFEE33FEED33FDEC33FCD9
:10040400C933C910D7059BE99A4007EC9BFCE99ACC
:10041400F90FD8E0E4C9FAE4CCFB2275F010EF2F11
:10042400FFEE33FEED33FDCC33CCC833C810D70711
:100434009BEC9AE899400AED9BFDEC9AFCE899F84C
:0E0444000FD5F0DAE4CDFBE4CCFAE4C8F922DF
:10045200E8600FEFC333FFEE33FEED33FDEC33FC08
:03046200D8F122AC
:10046500BB010DE58229F582E5833AF58302072E66
:100475005007E92582F8020722BBFE07E92582F825
:1004850002073AE58229F582E5833AF583020746B4
:10049500BB010DE58229F582E5833AF583020798CC
:1004A5005007E92582F802078CBBFE07E92582F88B
:0404B5000207A42274
:1004B900BB010DE58229F582E5833AF583020763DD
:1004C9005007E92582F8020756BBFE07E92582F89D
:1004D90002076FE58229F582E5833AF58302077CF5
:1004E900BB010DE58229F582E5833AF5830207C947
:1004F9005007E92582F80207B0BBFE07E92582F813
:040509000207FA22C9
:10050D00D083D082F8E4937012740193700DA3A37D
:10051D0093F8740193F5828883E473740293686091
:06052D00EFA3A3A380DF91
:10053300E3F5F009E208B5F06D606B80F3E3F5F0E5
:1005430009E608B5F060605E80F387F009E608B558
:10055300F054605280F487F009E208B5F048604631
:1005630080F488828C8387F009E0A3B5F038603685
:1005730080F488828C8387F009E493A3B5F0276025
:100583002580F388828C83E3F5F009E0A3B5F016A8
:10059300601480F388828C83E3F5F009E493A3B5B8
:1005A300F004600280F202065E808580E7808E8020
:1005B300D2803C8015806C807E809B80B5808B8050
:1005C300A1804F8070803A02066A89828A83ECFA9E
:1005D300E493F5F0A3C8C582C8CCC583CCE493A348
:1005E300C8C582C8CCC583CCB5F070606E80E18984
:1005F300828A83E493F5F0A3E208B5F05E605C8041
:10060300F289828A83E0F5F0A3E608B5F04D604BEA
:1006130080F389828A83E0F5F0A3E208B5F03C60B9
:100623003A80F389828A83E493F5F0A3E608B5F070
:100633002A602880F2805389828A83ECFAE493F556
:10064300F0A3C8C582C8CCC583CCE0A3C8C582C803
:10065300CCC583CCB5F004600280E27FFFB5F00225
:100663000F2240027F012289828A83ECFAE0F5F0AF
:10067300A3C8C582C8CCC583CCE0A3C8C582C8CCF7
:10068300C583CCB5F0D560D380E389828A83ECFA45
:10069300E0F5F0A3C8C582C8CCC583CCE493A3C856
:1006A300C582C8CCC583CCB5F0B160AF80E288F019
:1006B300ED2402B4040050A3F582EB2402B4040039
:0B06C300509923234582239005AC735F
:1006CE00EF4E6012EF60010EEDBB010B89828A8343
:1006DE00F0A3DFFCDEFA2289F05007F709DFFCA950
:0C06EE00F022BBFEFCF309DFFCA9F022A7
:10167D008E368F377E087F088F828E83E0FCA3E045
:10168D00FD4C7003FEFF228D828C83A3A3E0FAA391
:10169D00E0FBC39537EA95365008CEECCECFEDCFB3
:1016AD0080D6C3EB9537F539EA9536F538C3E5396C
:1016BD009410E538940050198D828C83E0FBA3E0E3
:1016CD008F828E83CBF0A3EBF0ED2404FFE43CFE80
:1016DD002274FC2539F53974FF3538F5388D828C37
:1016ED0083A3A3F0A3E539F0ED2404FFE43CFEEF62
:1016FD002539FFEE3538FE8F82F583A3A3E536F04D
:0C170D00A3E537F0EF2404FFE43EFE22C9
:0B1C7E00480808000000000000000003
:101D8E00EF4E7008FE7F01ED1D70011C900808EEED
:101D9E00F0A3EFF0A3ECF0A3EDF0900808E0FEA3A3
:101DAE00E0FFF5828E83E4F0A3F0ED24FCFDEC342D
:0C1DBE00FF8F828E83A3A3F0A3EDF02220
:100026008E288F291206FA8E288F2912167D8E2A7F
:100036008F2BEF4E7003FEFF22AE28AF297D00AA5C
:0D0046002AA92B7B011206CEAE2AAF2B2279
:10120600EF4E700302130990080AE07002A3E07023
:1012160003021309CDEFCDCCEECCED24FCFDEC346E
:10122600FFFC753608753708853782853683E0FA00
:10123600A3E08A38F53945386011D3E5399FE5389A
:101246009E500885383685393780DDE53945386062
:101256004A8D828C83A3A3E0FAA3E02FFFEA3EFE29
:10126600EF65397003EE65387031853982853883CC
:10127600A3A3E0FEA3E02404FFE43E8D828C83A3B7
:10128600A38FF012070C853982853883E0FFA3E02F
:101296008D828C83CFF0A3EFF0800B8D828C83E55B
:1012A60038F0A3E539F0853782853683A3A3E0FEBF
:1012B600A3E02537FFEE3536FEEF2404FFE43EFEBD
:1012C600EF6D7002EE6C70308D828C83A3A3E0FE0E
:1012D600A3E02404FFE43E853782853683A3A38FEB
:1012E600F012070C8D828C83E0FFA3E085378285A0
:1012F6003683CFF0A3EFF022853782853683ECF074
:04130600A3EDF02241
:1006FA00EF8DF0A4A8F0CF8CF0A428CE8DF0A42E14
:02070A00FE22CD
:10070C00C5F0F8A3E028F0C5F0F8E5821582700278
:06071C001583E038F02215
:0C072200E6FC08E6FD08E6FE08E6FF2203
:0C072E00E0FCA3E0FDA3E0FEA3E0FF223E
:0C073A00E2FC08E2FD08E2FE08E2FF22FB
:10074600E493FC740193FD740293FE740393FF22F9
:0D075600E6FB08E6F908E6FA08E6CBF82213
:0C076300E0F8A3E0F9A3E0FAA3E0FB2219
:0D076F00E2FB08E2F908E2FA08E2CBF8220A
:10077C00E493F8740193F9740293FA740393FB22D3
:0C078C00ECF608EDF608EEF608EFF62299
:0C079800ECF0A3EDF0A3EEF0A3EFF022D4
:0C07A400ECF208EDF208EEF208EFF22291
:1007B000D083D082E493F608740193F60874029310
:0907C000F608740393F674047347
:1007C900A8828583F0D083D0821207E01207E01255
:1007D90007E01207E0E473E493A3C583C5F0C5837A
:1007E900C8C582C8F0A3C583C5F0C583C8C582C87A
:0107F90022DD
:1007FA00D083D082E493F208740193F208740293CE
:09080A00F208740393F274047304
:00000001FF
